:1000000080317228080008007E1480318B1D092879
:100010000A2812280B1C0D280E2812288731BA270F
:10002000803170280B1F1528162870282100111EFA
:100030001A281B2827282000111E1F2820282728BF
:10004000210051088A0050080A00803170282100E0
:10005000911E2B282C2838282000911E302831286A
:10006000382821004F088A004E080A008031702885
:100070002100121F3C283D2846282000121F41283D
:10008000422846288F310927803170282100921E8E
:100090004A284B2854282000921E4F2850285428C4
:1000A0008F310627803170282100931C5828592849
:1000B00062282000931C5D285E2862288731DB2798
:1000C000803170282100911C662867287028200044
:1000D000911C6B286C2870288F31C72780317028BD
:1000E0007E10090080317428FD013E30840000300C
:1000F00085001D308F3133278031A03084000030DF
:10010000850018308F31332780317E1020008031F8
:1001100089288631D12680318B11D4302000AE0061
:100120000330AF008F31872780318B170B178F314A
:100130009A2780318F3148278031003A0319A1284E
:10014000A228F3285A302000AF005930B000863181
:10015000A326803120002F083004031DB028B128C9
:10016000F3285A08D03E2100C000FF3003180030A9
:10017000C10020005908D03E2100C200FF30031802
:100180000030C300C11BC528C628DA284108803AC0
:10019000BA0080303A02031DCF2804304002031811
:1001A000D228D328DA28210040083E3E8600870165
:1001B000013081002100C31BDE28DF28F32843081B
:1001C000803ABA0080303A02031DE8280430420227
:1001D0000318EB28EC28F328210042083E3E860055
:1001E0008701013081008531C52580319B2983310C
:1001F0002223803120002F082100C50020002E0876
:100200002100C400440A031D0A29450A03190929CB
:100210000A29332944082000D1005108500203184C
:10022000122913291A298F31E32780310130200048
:10023000CF00B6295008510203181F292029272969
:100240008F31D527803102302000CF00B629210020
:1002500044083E3E86008701810103302000CF0024
:10026000C401C501B62920005008031938293929CD
:10027000B6290130BE00B629200050085106031DE2
:10028000422943294D298F319A2780312000500877
:100290003E3E8600870181012D2983312223803152
:1002A00020002F082100BF0020002E082100BE00E2
:1002B0003E0A031D60293F0A03195F296029B629F8
:1002C0003E082000D100B62901302000C4070030CC
:1002D000C53D00304502C83003194402031C712992
:1002E0007229B62983312223803120002F08210072
:1002F000BD0020002E082100BC003C0A031D8529FA
:100300003D0A031984298529892904302000CF005A
:1003100030292000CF01B62901302000C407003069
:10032000C53D00304502323003194402031C9929AF
:100330009A29B629892920004F082100BA00BB015B
:100340003B08003A0319A529B6293A08003A0319CF
:10035000F728013A03193C29033A03193C29013AC9
:1003600003196429073A03198C29B62901302000A2
:10037000C6070030C73D003047021E300319460251
:10038000031CC329C429CA298131D6218031200008
:10039000C601C7011A302100BA00F830890BCE29F6
:1003A000BA0BCE2900009A28803172282430863179
:1003B000F926813120005008303E8631F9268131FE
:1003C00020005108303E8631F926813120004E0848
:1003D000303E8631F926813164302000B40000308F
:1003E000B5004D08BC00BD013C08B6003D08B70093
:1003F00084317D24813120003408303E8631F92655
:1004000081310A302000B4000030B5004D08BC0036
:10041000BD013C08B0003D08B1006430AE000030C2
:10042000AF0085313125813120002F08B7002E081B
:10043000B60084317D24813120003408303E86317D
:10044000F926813120004D08BC00BD013C08B000F8
:100450003D08B1006430AE000030AF008531312579
:10046000813120002F082100B90020002E08210032
:10047000B8000A302000AE000030AF00210039087B
:100480002000B100210038082000B000853131255E
:10049000813120002E08303E8631F92681316430CA
:1004A0002000B4000030B5004C08BC00BD013C0881
:1004B000B6003D08B70084317D2481312000340826
:1004C000303E8631F92681310A302000B4000030F8
:1004D000B5004C08BC00BD013C08B0003D08B100AF
:1004E0006430AE000030AF0085313125813120000D
:1004F0002F08B7002E08B60084317D2481312000FA
:100500003408303E8631F92681312E308631F92685
:10051000813120004C08BC00BD013C08B0003D0802
:10052000B1006430AE000030AF008531312581313B
:1005300020002F082100B90020002E082100B8005B
:100540000A302000AE000030AF0021003908200042
:10055000B100210038082000B000853131258131FB
:1005600020002E08303E8631F9268131643020008B
:10057000B4000030B5004B08BC00BD013C08B6001B
:100580003D08B70084317D24813120003408303E9D
:100590008631F92681310A302000B4000030B500E0
:1005A0004B08BC00BD013C08B0003D08B100643000
:1005B000AE000030AF0085313125813120002F0899
:1005C000B7002E08B60084317D2481312000340824
:1005D000303E8631F92681312E308631F92681313F
:1005E00020004B08BC00BD013C08B0003D08B10034
:1005F0006430AE000030AF008531312581312000FC
:100600002F082100B90020002E082100B8000A3070
:100610002000AE000030AF00210039082000B100FA
:10062000210038082000B0008531312581312000BB
:100630002E08303E8631F92681310D308631F9267B
:100640008131080020004F08031D272B282B502B39
:10065000B101B201200031083E3E86008701010849
:100660000319332B342B392B3208AF003108AE007D
:10067000D32B0130B1070030B23D3208803AB000D0
:1006800080303002031D462B04303102031C492BFD
:100690004A2B2A2BFF302000AE00FF30AF00D32BB7
:1006A0004F03031D542B552B8A2B5008013EB300DA
:1006B000003003180130B4003408803AB0008030B4
:1006C0003002031D652B04303302031C682B692B99
:1006D0006A2B8A2B200033083E3E860087010108E2
:1006E0000319732B742B792B3408AF003308AE0039
:1006F000D32B0130B3070030B43D3408803AB0004A
:1007000080303002031D862B04303302031C892BFA
:100710008A2B6A2B023020004F06031D902B912B51
:10072000B02B5008FF3EB500FF3003180030B60074
:10073000B61F9B2B9C2B9D2BB02B35083E3E860075
:10074000870101080319A52BA62BAB2B3608AF0098
:100750003508AE00D32BFF30B507FF30B63D982BE0
:10076000B701B801200037083E3E86008701010826
:100770000319BB2BBC2BC12B3808AF003708AE00C8
:10078000D32B0130B7070030B83D3808803AB000AD
:1007900080303002031DCE2B04303702031CD12BD6
:1007A000D22BB22B4A2B08008F311C27833120001B
:1007B000AC004A082C02AD002C08CA004E03031DF1
:1007C000E22BE32BF82B2D08A000A1012008C20783
:1007D0002108C33D00304302DD3003194202031CEF
:1007E000F22BF32B152CDC30C2000030C300152C8B
:1007F00002304E06031DFD2BFE2B152C2D08A000EC
:10080000A10121084302031D072C200842020318FE
:100810000A2C0B2C0E2CC201C301152C2D08A00094
:10082000A1012008C2022108C33B4208F00043088E
:10083000F100F201F3010030F7000030F600033060
:10084000F5004530F40086313E26833173082000E0
:10085000A7007208A6007108A5007008A400003067
:10086000F3000030F2000330F100E830F000270818
:10087000F7002608F6002508F5002408F400843166
:10088000D924833170082000CD002D08A000A101DB
:10089000A201A3012308F3002208F2002108F100BD
:1008A0002008F0000030F7000030F6000330F500BB
:1008B0004530F40086313E26833173082000AB00BA
:1008C0007208AA007108A9007008A8000030F3009F
:1008D0000030F2000030F1006430F0002B08F70027
:1008E0002A08F6002908F5002808F4008431D924E4
:1008F000833170082000CC0008002000B901B51F2A
:10090000822C832C8A2CB409B509B40A0319B50AC0
:100910000130B900B71F8D2C8E2C952CB609B70964
:10092000B60A0319B70A0130B906BA01BB01340887
:10093000350403199C2C9D2CCA2C0130B800A72C1F
:100940000130B435B50D890BA12C0130B807B51FA6
:10095000AA2CAB2CA02C0130BA35BB0D890BAC2CCA
:1009600035083702031DB62C34083602031CB92C97
:10097000BA2CBF2C3408B6023508B73B3A14013004
:10098000B536B40C890BC02C0130B802031DC92C3C
:10099000CA2CAB2C39080319CE2CCF2CD42CBA0975
:1009A000BB09BA0A0319BB0A3B08B5003A08B400F0
:1009B00008000030FB000030FA000030F900003081
:1009C000F80073087204710470040319E82CE92C10
:1009D000282D0130FC00F52C0130F035F10DF20D21
:1009E000F30D890BED2C0130FC07F31FF82CF92CCB
:1009F000EC2C0130F835F90DFA0DFB0D890BFA2CB2
:100A000073087702031D0E2D72087602031D0E2D4A
:100A100071087502031D0E2D70087402031C112D40
:100A2000122D1B2D7008F4027108F53B7208F63B7D
:100A30007308F73B78140130F336F20CF10CF00C2C
:100A4000890B1C2D0130FC02031D272D282DF92CAC
:100A50007B08F3007A08F2007908F1007808F000CA
:100A600008002000B301B11F362D372D3E2DB009EF
:100A7000B109B00A0319B10A0130B300AF1F412D0B
:100A8000422D472DAE09AF09AE0A0319AF0A2E0851
:100A90002F0403194C2D4D2D742D0130B200572D0C
:100AA0000130AE35AF0D890B512D0130B207AF1FAC
:100AB0005A2D5B2D502D2F083102031D612D2E085C
:100AC0003002031C642D652D692D2E08B0022F08FD
:100AD000B13B0130AF36AE0C890B6A2D0130B2024A
:100AE000031D732D742D5B2D33080319782D792D7B
:100AF0007E2DB009B109B00A0319B10A3108AF005F
:100B00003008AE0008002100911205302000AE0030
:100B10000630AF008F316C2785312100111245302E
:100B20002000AE000730AF008F31752785310830C7
:100B300023009F0090309D0024309E0067309B0072
:100B40009C0103302000AE000F30AF008F315A27D8
:100B5000853110302000AE000F30AF008F31632799
:100B600085310C302000AE000F30AF008F3151279F
:100B700085312000D201D701D6010830D500FD0112
:100B8000D401D30121009116080020000D18C92DB1
:100B9000CA2DCB2DD0018D19CE2DCF2DD12D0130C9
:100BA000D0002200111FD52DD62DD92D02302000C6
:100BB000D0002200131FDD2DDE2DE12D033020009B
:100BC000D00020000D18E52DE62DF22D02304E0646
:100BD000031DEB2DEC2DF22D8F319A27853120004E
:100BE000CF01CD012200131FF62DF72D042E20007A
:100BF0004E03031DFC2DFD2D042E8F319A278531C8
:100C00002000CF01B430CD0008007D08A03E860052
:100C10008701810123001D1D0E2E0F2E1A2E7D0827
:100C2000A03E86008701811421004B088A004A08F3
:100C30000A00863123009D1C1E2E1F2E2A2E7D08A1
:100C4000A03E860087010115210049088A00480856
:100C50000A0086317D08A03E86008701010803193D
:100C6000322E332E3A2E210047088A0046080A0009
:100C700086313D2E87319327863108000030FB00F6
:100C80000030FA000030F9000030F800701C492EE6
:100C90004A2E522E7408F8077508F93D7608FA3D79
:100CA0007708FB3D0130F435F50DF60DF70D890B96
:100CB000532E0130F336F20CF10CF00C890B5A2E46
:100CC0007308720471047004031D672E682E462E8B
:100CD0007B08F3007A08F2007908F1007808F00048
:100CE0000800803022008C008D01333021008C0000
:100CF000EF308D00803023008D000B308C000930E8
:100D000024008D008C0121009513C03022009D002D
:100D100001309E0027001610961115149515141019
:100D2000941104302000AE000F30AF008F31212726
:100D3000863105302000AE000F30AF008F312727FD
:100D400086318B150800873120278631243A031D10
:100D5000AA2EAB2ECB2E8731202786312000B10062
:100D60002F088600870131088100873120278631CE
:100D70002000B100300886008701310881008731EA
:100D8000202786310D3A031DC62EC72ECB2E2000FC
:100D9000AF01B001D02E01302000AF000030B00014
:100DA00008008F31A42786318631712686318F3134
:100DB000392786318F31182786318F3114278631B4
:100DC0008F31BB27863187317F2786318731A7272F
:100DD00086318F31902786318F31AF2786318F3121
:100DE000402786318F317E278631853183258631B4
:100DF00008002000AE0055080319FF2E002FFB2E1F
:100E00002100111A042F052F0A2F20002E0823007D
:100E10009A001D2F111220005708B03E860087014E
:100E20002E0881000130D70708305702031C192F04
:100E30001A2F1B2FD7010130D502210011160800EF
:100E4000200053080319252F262F202F5408A03ED9
:100E5000860087010108D2005408A83E8600870159
:100E60000108AE000130D40708305402031C392FAA
:100E70003A2F3B2FD4012100911201302000D302E0
:100E80002100911620002E0808000830200055028D
:100E900003184B2F4C2F602F5608B03E8600870159
:100EA000010823009A0001302000D60708305602BE
:100EB000031C5B2F5C2F5D2FD6010130D507622FFD
:100EC00021001112080020002F08B1002E08B000E8
:100ED000B136B00CB136B00C3008260091002000BD
:100EE0002E080339B0000430B035890B742F26006A
:100EF0001308CF3920003004260093000800EF309B
:100F000028009600950120009310210093140330CF
:100F10002000AE000030AF008F3187278731673067
:100F20002800970008007D08A83E8600870123005E
:100F3000190881000130FD0708307D02031CA12F34
:100F4000A22FA32FFD0101302000D3070800FF309E
:100F500020009B009A019110210091140230200082
:100F6000AE000030AF008F312D2787311C302000BC
:100F70009C0008002700161CBE2FBF2FC22F8F31E8
:100F8000F12787312700961DC62FC72FCA2F87311B
:100F9000EA278731080000348234FF348034C234B9
:100FA000A13491348E344234813489347634073418
:100FB00004340434FF342000931021004C084D0405
:100FC0000319E32FE42FE92F4D088A004C080A008B
:100FD0008731080020005D085E040319F02FF12F0F
:100FE000F62F5E088A005D080A00873127009611F7
:100FF0000800093400340A3400340B3407340C344C
:1010000001340F3401340F34003400340034003420
:101010000034003402340134023400340234043425
:0A102000023400344034013400347F
:101E060008000800080020009212080020001213A3
:101E16000800873193278F31080023001D121D16F5
:101E260008008A302200970008001630210097002B
:101E3600080020001508F0007008080020002F0890
:101E4600E0002E08DF00080020002F08DE002E0824
:101E5600DD00080020002F08DC002E08DB0008004B
:101E6600640080010131890B342F00347230210067
:101E760099009801220096010800D33021009E00A7
:101E86009B019C0101309D00080020005308031DA2
:101E96004D2F4F2F0130502F0030080020002F0803
:101EA6002100C70020002E082100C60008002000DF
:101EB6002F082100CB0020002E082100CA000800B0
:101EC60020002F082100C90020002E082100C8008C
:101ED600080020002F082100CF0020002E08210036
:101EE600CE00080020002F082100D10020002E0877
:101EF6002100D00008000C302600930091019201C9
:101F0600CF3025009E05080020002F082100CD00B7
:101F160020002E082100CC00080021001508C03939
:101F26003838950020009501D8010B1108000030C3
:101F36002000AE00AF00873163278F312000CE012D
:101F460008004030240094009501013092002100E1
:101F56000D122400951208002100921284302200EE
:101F66009100E030920020009212210092160800A3
:101F760021001213843022009300E13094002000E7
:101F86001213210012170800200091105B085C0450
:101F96000319CE2FCF2FD42F5C088A005B080A00C6
:101FA6008F31080022008C1366302000AE0002300C
:101FB600AF00873163278F3102302000CE00080042
:101FC60022008C1766302000AE000230AF00873149
:101FD60063278F3101302000CE00080020005F0803
:101FE60060040319F72FF82FFD2F60088A005F0899
:0A1FF6000A008F31270016100800C2
:020000040001F9
:04000E00E43FFF3E8E
:00000001FF
