:1000000080314C28080003347E1480318B190B1C7E
:100010000C288E31202680310B1F4A282100931E88
:1000200017282000931E17288F31042780312100C4
:10003000921E20282000921E20288E319626803184
:100040002100121F29282000121F29288E31A326E3
:1000500080312100931C32282000931C32288D31DE
:10006000792580312100911E3E282000911E3E28D6
:10007000210061088A0060080A0080312100111EF9
:100080004A282000111E4A28210063088A006208BD
:100090000A0080317E10090080314E288031032013
:1000A0008031E2000F3084008E308500E63086001B
:1000B0000030870008308D319B2580314E30840020
:1000C0000030850014308D3195258031A0308400BA
:1000D0000030850030308D3195258031203084000E
:1000E0000130850020308D3195257E102000803133
:1000F000792886318B2680314E302000AD000E30BD
:10010000AE008D31EF2580315A302000AD000E3029
:10011000AE008D31F725803136302000AD000E3035
:10012000AE008D31AF25803142302000AD000E3061
:10013000AE008D31B725803137302000AD000F3053
:10014000AE008D31BF258031CD302000AD000730AD
:10015000AE008E31072680318B170B1722008D14CD
:1001600000308431AA2480318531A4258031CB012F
:100170004B08C03E8600870181010130CB07053066
:100180004B02031CB82840302100C5004030C60097
:100190004030C70020000D1CD928640022008C13B9
:1001A000F4302000AD000130AE0087319827803157
:1001B000CA280030AD00AE0087319827803120007A
:1001C0005408AD0000308631B52680318E31D726F7
:1001D00080316400023087315B2780312E08210096
:1001E000CB0020002D082100CA002000520803196E
:1001F0002A296630BB004C30BC004930BD002100CC
:100200006D082000B60021006C082000B5008F3179
:10021000262780313508B8003608B9003708BA00FB
:1002200083315023803138082200C0002000390873
:100230002200C10020003A082200C2008331CF23EF
:10024000803140082100EE00EF016E08C8006F0801
:10025000C9002D292100C801C901200061088F3182
:10026000E92780313508BF003608C0003708C100D3
:100270005330BC005630BD003F30BE008231CA2230
:1002800080313C082200C00020003D082200C1004F
:1002900020003E082200C2008331CF238031400875
:1002A0002000D8008D31A1258031003A0319E928BA
:1002B00087313C2780312200CA0024304A06031DC2
:1002C00064292000D701E9280D304A06031D6C2956
:1002D0008F31A7278031612902302000570203188F
:1002E000E92857084E3E8600870122004A0881000F
:1002F00001302000D707E9285808A500A6012508E5
:10030000F7002608F8008231412281317808A800E0
:100310007708A70021004908F8004808F700823153
:10032000412281317808AA007708A90021004B08F2
:10033000F8004A08F7008231412281317808AC0088
:100340007708AB00243087311C2781312000540806
:100350008E31E426813187311C2781312C30873161
:100360001C278131200053088E31E42681318731EA
:100370001C2781312C3087311C2781312000520805
:100380008E31E426813187311C2781312C30873131
:100390001C278131200028088E31E42681318731E5
:1003A0001C27813120002808A6002708A50004305A
:1003B000A636A50C890BD82925088E31E426813173
:1003C00087311C278131200027088E31E4268131B6
:1003D00087311C2781312C3087311C278131200047
:1003E0002A088E31E426813187311C278131200093
:1003F0002A08A6002908A5000430A636A50C890BFA
:10040000FD2925088E31E426813187311C27813171
:100410002E3087311C278131200029088E31E426B7
:10042000813187311C2781312C3087311C27813164
:1004300020002C088E31E426813187311C27813140
:1004400020002C08A6002B08A5000430A636A50C19
:10045000890B262A25088E31E426813187311C2715
:1004600081312E3087311C27813120002B088E31BD
:10047000E426813187311C2781310D3087311C27DB
:1004800008002130F0000030F1000030F200F300ED
:100490000430F4000030F5008F315B27823177089B
:1004A0002000A1007808A200A301A401A001240853
:1004B0000F39F90005307902031C672A24080F3927
:1004C000033EF90024087906F0397906A400230ECA
:1004D0000F39F90005307902031C782A230E0F39F1
:1004E000033EF900F90E230879060F397906A300B7
:1004F00023080F39F90005307902031C882A2308E4
:100500000F39033EF90023087906F0397906A30074
:10051000220E0F39F90005307902031C992A220EA8
:100520000F39033EF900F90E220879060F397906D2
:10053000A2002108F9002208FA002308FB00240881
:10054000FC000130F935FA0DFB0DFC0D890BA22AD8
:100550007C08A4007B08A3007A08A2007908A10007
:100560000130A0070C302002031C572A2108F90093
:100570002208FA002308FB002408FC000C30FC369B
:10058000FB0CFA0CF90C890BBF2A7A08F8007908E1
:10059000F70008003C08C2003D08C3003E08C40044
:1005A0000310430D440DC5004508031DDE2A00302D
:1005B000BC000030BD000030BE0008003F08C20093
:1005C0004008C3004108C4000310430D440DCA0095
:1005D0004A08031DF22A0030BC000030BD00003084
:1005E000BE0008004A087B3EC5073E08CA00410815
:1005F000CA068030CA05BD17C017FF30BF05FF30DF
:10060000C0050030C1050030C6000030C700003012
:10061000C8000730C9003C1C132B3F08C607400820
:10062000C73D4108C83D0130BE36BD0CBC0C890B2E
:10063000142B0130BF35C00DC10D890B1A2B0130B1
:10064000C902031D0B2B0930C9003C1C2D2B3F0890
:10065000C6074008C73D4108C83D0130BE36BD0C45
:10066000BC0C890B2E2B0130C836C70CC60C890B6D
:10067000342B0130C902031D252B4608AD00470865
:10068000AE004808AF004508B0004A08B100843108
:100690004A242D08BC002E08BD002F08BE0008000B
:1006A0003B08BE003C08BF003D08C00003103F0DE2
:1006B000400DC5004508031D642B0030B800003014
:1006C000B9000030BA0008003808BE003908BF0081
:1006D0003A08C00003103F0D400DC6004608031D38
:1006E000782B0030B8000030B9000030BA000800A4
:1006F0000030C2000030C3000030C400893046071B
:10070000BE003E08C5023D08C6003A08C606803055
:10071000C605BC17FF30BB05FF30BC050030BD056A
:10072000B917FF30B805FF30B9050030BA051830E9
:10073000C1000130C235C30DC40D890B9A2B3A0894
:100740003D02031DA92B39083C02031DA92B3808C3
:100750003B02031CB22B3808BB023908BC3B3A08E9
:10076000BD3B42140130BB35BC0DBD0D890BB32B15
:100770000130C102031D992B4208AD004308AE00B1
:100780004408AF004508B0004608B10084314A244F
:100790002D08B8002E08B9002F08BA00080040083C
:1007A0002000CB00220041082000CC00220042089B
:1007B0002000CD0003104C0D4D0D2200C90049084A
:1007C000031DEB2B0030C3000030C2000030C1001D
:1007D0000030C000080040082000CB002200410883
:1007E0002000CC00220042082000CD001730CD367A
:1007F000CC0CCB0C890BF72B4B082200C400C11783
:10080000FF30C005FF30C1050030C2054008C500FB
:100810004108C6004208C700C8018E30C902C91F7E
:10082000222C4908803A8F3E031CE22B0130C83647
:10083000C70CC60CC50C890B172C0130C90703194E
:10084000332C162C183049020318E22B49080319DF
:10085000332C0130C535C60DC70DC80D890B2A2CA8
:100860000130C902262C44080319412CC509C609C8
:10087000C709C809C50A0319C60A0319C70A031913
:10088000C80A4808C3004708C2004608C100450816
:10089000C000080030080319522C2F082E042D0424
:1008A000031D612C0030AD000030AE000030AF0001
:1008B00008000130B0070130AF36AE0CAD0C890B2B
:1008C0005C2CFE302F050319782C592C0130B00711
:1008D0000130AD07003003180130AE0700300318B7
:1008E0000130AF070130AF36AE0CAD0C890B732C65
:1008F000FF302F050319892C662C02303002031CAF
:100900008B2C0130B0020130AD35AE0DAF0D890B2F
:10091000842CAE1F7D2C3018932CFF30AD057F301A
:10092000AE05FF30AF050310B00C3008B200B301C4
:10093000B4011030B235B30DB40D890B9A2C3208C6
:10094000AD043308AE043408AF04310803190800BD
:10095000AF1708002000B0002400951A08002000FE
:100960003008AD00AE01AD35AE0DAD35AE0D0E307B
:100970002D07840008302E3D8038850000082400B3
:10098000940020003008AD00AE01AD35AE0DAD35A0
:10099000AE0D0D302D07840008302E3D80388500C7
:1009A000000824009500960120003008AD00AE013B
:1009B000AD35AE0DAD35AE0D0F302D0784000830CE
:1009C0002E3D803885000008240092002000300869
:1009D000AD00AE01AD35AE0DAD35AE0D10302D070D
:1009E000840008302E3D803885000008AF00AF0E2F
:1009F00021000D0820002F06EF392F0621008D0061
:100A0000240095160800530854060319372D0230A8
:100A10005205F40002305105F50075087406031DF7
:100A20002A2D5308540203181B2D0330D200220034
:100A30008C178030202D0130D20022008C13203002
:100A40002100C600F430F0000130F1008F31D227D0
:100A500085313A2D0030F000F1008F31D2278531F9
:100A60002100C801C90105302000D0003A2D87318E
:100A70007A2785310F3020005505F4005508F50020
:100A80000430F536890B412D02307505F600550806
:100A9000F7000230F736890B4A2D770804397604BF
:100AA0007404F800780840382100C700200052087C
:100AB000D1000800AF0004302F02031808000430F2
:100AC0002D02031808002F082D06031908002D0811
:100AD0002F0203186D2D6008722D04306002031878
:100AE0006B2D0230B0000130B00706303002031821
:100AF000B0013008E63E8600870101082F06031D7D
:100B0000732D0130AE00300A862DAE35890B852D50
:100B10002E085604D6000130B00706303002031804
:100B2000B0013008E63E8600870101082D06031D4E
:100B30008B2D0130AE00300A9E2DAE35890B9D2DD8
:100B40002E085604D60008002000AE010930873177
:100B5000E62785312000AE010A308731E62785314E
:100B60002000AE010C308731E627853107302000A8
:100B7000AE000B308731E62785312000AE01AE0A8A
:100B80000C308731E62785312000AE01AE0A0F30E8
:100B90008731E62785310B302000B1002630B000C8
:100BA0005D30890BD12DB00BD12DB10BD12D003281
:100BB0002000AE010F308731E62785312000AE01DD
:100BC000AE0A0C308731E62708002100911225304B
:100BD0002000AD000630AE008D31DF2585311112C9
:100BE000B3302000AD000730AE008D31E7258531F0
:100BF000083023009F0090309D0024309E00673015
:100C00009B009C016F302000AD000D30AE008D3197
:100C1000CF25853175302000AD000D30AE008D310F
:100C2000D725853172302000AD000D30AE008D31FA
:100C3000C7252000D901DF01DE012030DD00DC0105
:100C4000DB01DA0121009116080020005C08A03EBB
:100C500086008701810123001D1D3A2E20005C08BB
:100C6000A03E86008701811421005F088A005E088B
:100C70000A00863123009D1C492E20005C08A03EFE
:100C800086008701011521005D088A005C080A00C2
:100C9000863120005C08A03E860087010108031908
:100CA000582E21005B088A005A080A008631080085
:100CB0008F314927080022008C018D013730210037
:100CC0008C00CD308D00C03023008D0007308C00AB
:100CD000093024008D008C0121009513C0302200C2
:100CE0009D0001309E0027001610961115149515D1
:100CF0001410941170302000AD000D30AE008D3115
:100D0000EF25863171302000AD000D30AE008D3101
:100D1000F7258B1508008E318A26863186315B26B1
:100D200086318D318F2586318D31812586318D310A
:100D30007D2586318E317E2686318F318127863121
:100D40008D31FF2586318E31722686318F31152700
:100D500086318D31A82586318E31172686318E3128
:100D6000F42686318531E5250800AF002D08AE0058
:100D70000230AE35890BB92E2E080F39AD00B00107
:100D80002F08C03E860087012D08FD3E8400873075
:100D90000318013E8500000881000130AD070130D5
:100DA000AF070130B0070430300203180800C02E2E
:100DB000F2007008F1000230F135890BDC2E710869
:100DC0000F39F000F3017208C03E860087017008F9
:100DD000FD3E840087300318013E85000008810035
:100DE0000130F0070130F2070130F30704307302DD
:100DF00003180800E32E56080319152F0130E007E9
:100E0000063060020318E0010130F000600A092F8B
:100E1000F035890B082F7008F10056087105031989
:100E2000FE2E71095605D600162FE0016008E63E39
:100E30008600870101080800F00020005D08031902
:100E40001D2F2100111A282F700823009A00392F16
:100E5000111220005F08203E8600013087007008D4
:100E600081000130DF0720305F020318DF0101300D
:100E7000DD022100111608005A0803193C2F5B08F7
:100E8000A03E860087010108D9005B08B03E8600BD
:100E900087010108AD000130DB0710305B02031849
:100EA000DB012100911201302000DA0221009116AD
:100EB00020002D0808002000B0003008AF00AF0D62
:100EC000AF0D21001D0820002F0683392F062100B9
:100ED0009D001D140330890B6B2F000021009D1411
:100EE0009D18702F1C082000AE0021001B08200058
:100EF000AD00080053085406031D0800D20121006C
:100F0000C801C9010030F000F1008F31D2278731CC
:100F10002000510803198E2F1430D00040302100DA
:100F2000C60020005608D5008631FB26D3000800F5
:100F30002E08B0002D08AF00B036AF0CB036AF0CA5
:100F40002F082600910020002D080339AF0004303F
:100F5000AF35890BA82F26001308CF3920002F04A6
:100F6000260093000800203020005D020318CA2FDD
:100F70005E08203E860001308700010823009A00A9
:100F800001302000DE0720305E020318DE01013050
:100F9000DD07080021001112080020006208031D6F
:100FA000D72F81317C21873103302000E2000130CE
:100FB000E2028E316626873120005008031DE32FA0
:100FC0008531032508000130D0020800AF0022005F
:100FD0008D1020002F088D318A2587312000911D2A
:100FE000EE2F91112E088D318A2587312000911D19
:100FF000F62F911122008D1408007E348134813443
:101000007E3400344134FF34013463348534893410
:1010100071344234913491346E340A3440340134A2
:0210200000349A
:101ADC0008000800080008008F314927080023007F
:101AEC001D121D16080093108E312B260800853010
:101AFC002200970008001630210097000800F00023
:101B0C007008240091000800AD002D0824009100FD
:101B1C0008007030990098012200960108006400BA
:101B2C0080010131890B962D0034FE0012001E003D
:101B3C00FE0B9C2D00345A080319A62D0130080009
:101B4C000030080093309E009B019C0101309D00E9
:101B5C0008002E082100D70020002D082100D600F7
:101B6C0008002E082100D50020002D082100D400EB
:101B7C0008002E082100D90020002D082100D800D3
:101B8C0008002E082100DB0020002D082100DA00BF
:101B9C0008002E082100DF0020002D082100DE00A7
:101BAC0008002E082100DD0020002D082100DC009B
:101BBC0008002E082100E10020002D082100E00083
:101BCC0008002E082100E30020002D082100E2006F
:101BDC0008002E082100D30020002D082100D2007F
:101BEC0008002E082100D10020002D082100D00073
:101BFC000800FF3020009B009A01911004309C00DB
:101C0C0008002E082100E50020002D082100E4002A
:101C1C000800003401340234033402340134FF343C
:101C2C00FF340C302600930091019201CF30250037
:101C3C009E0508002700161C262E8E31B0268E31EC
:101C4C00961D08008E31BD2608002100640865042D
:101C5C000319080065088A0064080A008E31080020
:101C6C0002302000D40087317A278E315408F000DE
:101C7C0000308631D826080003302000D40087318C
:101C8C007A278E315408F00000308631D8260800AF
:101C9C002000D401E10187317A278E315408F000FD
:101CAC0000308631D826080001302000D40087315E
:101CBC007A278E315408F00000308631D82608007F
:101CCC00F50175088F316E278E310130F50708301C
:101CDC00750203180800672E21009212863022002C
:101CEC009100A03092002000921221009216080060
:101CFC0021001213863022009300A13094002000A2
:101D0C0012132100121708004030240094000A30EE
:101D1C0095000130920021000D122400951208004C
:101D2C002100560857040319A02E57088A0056089C
:101D3C000A008E312000921208002100540855042C
:101D4C000319AD2E55088A0054080A008E31200064
:101D5C00121308002100520853040319BA2E530819
:101D6C008A0052080A008E31270016100800210044
:101D7C00500851040319C72E51088A0050080A0054
:101D8C008E31270096110800AD003A302D02031851
:101D9C00D22E2D08D03ED42E2D08C93EAD002D08D4
:101DAC000800B20132088F3194278E3101302000A7
:101DBC00B2070830320203180800D82EF000700861
:101DCC000F39F0000A3070020318EF2E7008303E05
:101DDC00F12E7008373EF0007008080020009901C1
:101DEC0097019601111017082100CF00200016084A
:101DFC002100CE00313020009800080093122600FC
:101E0C001808F2001908F3007308F1007208F000CA
:101E1C00210059088A0058080A008F310800043044
:101E2C0026009A00980199016E302000AD000D300B
:101E3C00AE008D31BF2520009312210093160800AF
:101E4C003508AD003608AE00AF018E30B000B101E0
:101E5C0084314A242D08B5002E08B6002F08B7008F
:101E6C0008007108ED007008EC00033020005206E9
:101E7C00031D432F0130E10708005203031D080026
:101E8C000130E102080020005C08B03E86008701AA
:101E9C0023001908810001302000DC0710305C029F
:101EAC000318DC010130DA0708007008F600013075
:101EBC00F4020030F53B740A0319750A0319080083
:101ECC00760886008701720881000130F6075D2FC5
:101EDC00F4000830740203180800C730F3007408CB
:101EEC00F3027308860087010108F1007408013EB3
:101EFC008F31BC270800EF30280096009501200098
:101F0C0093102100931402302000AD000030AE007D
:101F1C008E3107266730280097000800B100083082
:101F2C00310203180800C730B0003108B002300885
:101F3C00860087010108AE003108013E8731E62793
:101F4C000800023020005706031D08004E088E3191
:101F5C00CA268F31B1004F088E31CA268F31B2009C
:101F6C003208AD00310885315A250800F2002200F4
:101F7C008D1072088D3185258F312000911DC32F56
:101F8C00911171088D3185258F312000911DCB2F3A
:101F9C00911122008D1408007108F3007008F200F2
:101FAC00F336F20CF336F20C72082600910070082E
:101FBC000339F2000430F235890BE12F1308CF39C5
:101FCC00720493000800BB003B08B800B901BA01C9
:101FDC003808AD003908AE003A08AF008E30B000BA
:101FEC00B10184314A242D08B5002E08B6002F0803
:041FFC00B700080022
:020000040001F9
:04000E00643FFF3E0E
:00000001FF
